{
  "_format": "hh-sol-artifact-1",
  "contractName": "FunNFT",
  "sourceName": "contracts/FunNFT.sol",
  "abi": [
    {
      "inputs": [],
      "stateMutability": "nonpayable",
      "type": "constructor"
    },
    {
      "anonymous": false,
      "inputs": [
        {
          "indexed": true,
          "internalType": "address",
          "name": "owner",
          "type": "address"
        },
        {
          "indexed": true,
          "internalType": "address",
          "name": "approved",
          "type": "address"
        },
        {
          "indexed": true,
          "internalType": "uint256",
          "name": "tokenId",
          "type": "uint256"
        }
      ],
      "name": "Approval",
      "type": "event"
    },
    {
      "anonymous": false,
      "inputs": [
        {
          "indexed": true,
          "internalType": "address",
          "name": "owner",
          "type": "address"
        },
        {
          "indexed": true,
          "internalType": "address",
          "name": "operator",
          "type": "address"
        },
        {
          "indexed": false,
          "internalType": "bool",
          "name": "approved",
          "type": "bool"
        }
      ],
      "name": "ApprovalForAll",
      "type": "event"
    },
    {
      "anonymous": false,
      "inputs": [
        {
          "indexed": true,
          "internalType": "address",
          "name": "from",
          "type": "address"
        },
        {
          "indexed": true,
          "internalType": "address",
          "name": "to",
          "type": "address"
        },
        {
          "indexed": true,
          "internalType": "uint256",
          "name": "tokenId",
          "type": "uint256"
        }
      ],
      "name": "Transfer",
      "type": "event"
    },
    {
      "inputs": [
        {
          "internalType": "address",
          "name": "to",
          "type": "address"
        },
        {
          "internalType": "uint256",
          "name": "tokenId",
          "type": "uint256"
        }
      ],
      "name": "approve",
      "outputs": [],
      "stateMutability": "nonpayable",
      "type": "function"
    },
    {
      "inputs": [
        {
          "internalType": "address",
          "name": "owner",
          "type": "address"
        }
      ],
      "name": "balanceOf",
      "outputs": [
        {
          "internalType": "uint256",
          "name": "",
          "type": "uint256"
        }
      ],
      "stateMutability": "view",
      "type": "function"
    },
    {
      "inputs": [
        {
          "internalType": "uint256",
          "name": "tokenId",
          "type": "uint256"
        }
      ],
      "name": "buy",
      "outputs": [],
      "stateMutability": "payable",
      "type": "function"
    },
    {
      "inputs": [
        {
          "internalType": "uint256",
          "name": "tokenId",
          "type": "uint256"
        }
      ],
      "name": "getApproved",
      "outputs": [
        {
          "internalType": "address",
          "name": "",
          "type": "address"
        }
      ],
      "stateMutability": "view",
      "type": "function"
    },
    {
      "inputs": [
        {
          "internalType": "address",
          "name": "owner",
          "type": "address"
        },
        {
          "internalType": "address",
          "name": "operator",
          "type": "address"
        }
      ],
      "name": "isApprovedForAll",
      "outputs": [
        {
          "internalType": "bool",
          "name": "",
          "type": "bool"
        }
      ],
      "stateMutability": "view",
      "type": "function"
    },
    {
      "inputs": [
        {
          "internalType": "string",
          "name": "tokenURI",
          "type": "string"
        },
        {
          "internalType": "uint256",
          "name": "price",
          "type": "uint256"
        }
      ],
      "name": "mint",
      "outputs": [
        {
          "internalType": "uint256",
          "name": "tokenId",
          "type": "uint256"
        }
      ],
      "stateMutability": "nonpayable",
      "type": "function"
    },
    {
      "inputs": [],
      "name": "name",
      "outputs": [
        {
          "internalType": "string",
          "name": "",
          "type": "string"
        }
      ],
      "stateMutability": "view",
      "type": "function"
    },
    {
      "inputs": [
        {
          "internalType": "uint256",
          "name": "tokenId",
          "type": "uint256"
        }
      ],
      "name": "ownerOf",
      "outputs": [
        {
          "internalType": "address",
          "name": "",
          "type": "address"
        }
      ],
      "stateMutability": "view",
      "type": "function"
    },
    {
      "inputs": [
        {
          "internalType": "address",
          "name": "from",
          "type": "address"
        },
        {
          "internalType": "address",
          "name": "to",
          "type": "address"
        },
        {
          "internalType": "uint256",
          "name": "tokenId",
          "type": "uint256"
        }
      ],
      "name": "safeTransferFrom",
      "outputs": [],
      "stateMutability": "nonpayable",
      "type": "function"
    },
    {
      "inputs": [
        {
          "internalType": "address",
          "name": "from",
          "type": "address"
        },
        {
          "internalType": "address",
          "name": "to",
          "type": "address"
        },
        {
          "internalType": "uint256",
          "name": "tokenId",
          "type": "uint256"
        },
        {
          "internalType": "bytes",
          "name": "_data",
          "type": "bytes"
        }
      ],
      "name": "safeTransferFrom",
      "outputs": [],
      "stateMutability": "nonpayable",
      "type": "function"
    },
    {
      "inputs": [
        {
          "internalType": "address",
          "name": "operator",
          "type": "address"
        },
        {
          "internalType": "bool",
          "name": "approved",
          "type": "bool"
        }
      ],
      "name": "setApprovalForAll",
      "outputs": [],
      "stateMutability": "nonpayable",
      "type": "function"
    },
    {
      "inputs": [
        {
          "internalType": "bytes4",
          "name": "interfaceId",
          "type": "bytes4"
        }
      ],
      "name": "supportsInterface",
      "outputs": [
        {
          "internalType": "bool",
          "name": "",
          "type": "bool"
        }
      ],
      "stateMutability": "view",
      "type": "function"
    },
    {
      "inputs": [],
      "name": "symbol",
      "outputs": [
        {
          "internalType": "string",
          "name": "",
          "type": "string"
        }
      ],
      "stateMutability": "view",
      "type": "function"
    },
    {
      "inputs": [
        {
          "internalType": "uint256",
          "name": "tokenId",
          "type": "uint256"
        }
      ],
      "name": "toggleForSale",
      "outputs": [],
      "stateMutability": "nonpayable",
      "type": "function"
    },
    {
      "inputs": [
        {
          "internalType": "uint256",
          "name": "tokenId",
          "type": "uint256"
        }
      ],
      "name": "tokenURI",
      "outputs": [
        {
          "internalType": "string",
          "name": "",
          "type": "string"
        }
      ],
      "stateMutability": "view",
      "type": "function"
    },
    {
      "inputs": [
        {
          "internalType": "address",
          "name": "from",
          "type": "address"
        },
        {
          "internalType": "address",
          "name": "to",
          "type": "address"
        },
        {
          "internalType": "uint256",
          "name": "tokenId",
          "type": "uint256"
        }
      ],
      "name": "transferFrom",
      "outputs": [],
      "stateMutability": "nonpayable",
      "type": "function"
    }
  ],
  "bytecode": "0x60806040523480156200001157600080fd5b506040518060400160405280601181526020017f46756e4e465420436f6c6c656374696f6e0000000000000000000000000000008152506040518060400160405280600381526020017f46554e0000000000000000000000000000000000000000000000000000000000815250816000908051906020019062000096929190620000b8565b508060019080519060200190620000af929190620000b8565b505050620001cd565b828054620000c69062000168565b90600052602060002090601f016020900481019282620000ea576000855562000136565b82601f106200010557805160ff191683800117855562000136565b8280016001018555821562000136579182015b828111156200013557825182559160200191906001019062000118565b5b50905062000145919062000149565b5090565b5b80821115620001645760008160009055506001016200014a565b5090565b600060028204905060018216806200018157607f821691505b602082108114156200019857620001976200019e565b5b50919050565b7f4e487b7100000000000000000000000000000000000000000000000000000000600052602260045260246000fd5b61301a80620001dd6000396000f3fe6080604052600436106100f35760003560e01c806370a082311161008a578063b88d4fde11610059578063b88d4fde1461034c578063c87b56dd14610375578063d96a094a146103b2578063e985e9c5146103ce576100f3565b806370a082311461029257806395d89b41146102cf578063a22cb465146102fa578063a32018b914610323576100f3565b8063095ea7b3116100c6578063095ea7b3146101da57806323b872dd1461020357806342842e0e1461022c5780636352211e14610255576100f3565b806301ffc9a7146100f8578063056b01ce1461013557806306fdde0314610172578063081812fc1461019d575b600080fd5b34801561010457600080fd5b5061011f600480360381019061011a919061209a565b61040b565b60405161012c9190612932565b60405180910390f35b34801561014157600080fd5b5061015c600480360381019061015791906120ec565b6104ed565b6040516101699190612baf565b60405180910390f35b34801561017e57600080fd5b5061018761058d565b604051610194919061294d565b60405180910390f35b3480156101a957600080fd5b506101c460048036038101906101bf9190612140565b61061f565b6040516101d191906128cb565b60405180910390f35b3480156101e657600080fd5b5061020160048036038101906101fc919061205e565b6106a4565b005b34801561020f57600080fd5b5061022a60048036038101906102259190611f58565b6107bc565b005b34801561023857600080fd5b50610253600480360381019061024e9190611f58565b61081c565b005b34801561026157600080fd5b5061027c60048036038101906102779190612140565b61083c565b60405161028991906128cb565b60405180910390f35b34801561029e57600080fd5b506102b960048036038101906102b49190611ef3565b6108ee565b6040516102c69190612baf565b60405180910390f35b3480156102db57600080fd5b506102e46109a6565b6040516102f1919061294d565b60405180910390f35b34801561030657600080fd5b50610321600480360381019061031c9190612022565b610a38565b005b34801561032f57600080fd5b5061034a60048036038101906103459190612140565b610a4e565b005b34801561035857600080fd5b50610373600480360381019061036e9190611fa7565b610bc4565b005b34801561038157600080fd5b5061039c60048036038101906103979190612140565b610c26565b6040516103a9919061294d565b60405180910390f35b6103cc60048036038101906103c79190612140565b610d78565b005b3480156103da57600080fd5b506103f560048036038101906103f09190611f1c565b610f69565b6040516104029190612932565b60405180910390f35b60007f80ac58cd000000000000000000000000000000000000000000000000000000007bffffffffffffffffffffffffffffffffffffffffffffffffffffffff1916827bffffffffffffffffffffffffffffffffffffffffffffffffffffffff191614806104d657507f5b5e139f000000000000000000000000000000000000000000000000000000007bffffffffffffffffffffffffffffffffffffffffffffffffffffffff1916827bffffffffffffffffffffffffffffffffffffffffffffffffffffffff1916145b806104e657506104e582610ffd565b5b9050919050565b60006104f96007611067565b610503600761107d565b905061050f338261108b565b6105198184611259565b600060405180606001604052808381526020018481526020016000151581525090508060086000848152602001908152602001600020600082015181600001556020820151816001015560408201518160020160006101000a81548160ff0219169083151502179055509050505092915050565b60606000805461059c90612e0f565b80601f01602080910402602001604051908101604052809291908181526020018280546105c890612e0f565b80156106155780601f106105ea57610100808354040283529160200191610615565b820191906000526020600020905b8154815290600101906020018083116105f857829003601f168201915b5050505050905090565b600061062a826112cd565b610669576040517f08c379a000000000000000000000000000000000000000000000000000000000815260040161066090612aef565b60405180910390fd5b6004600083815260200190815260200160002060009054906101000a900473ffffffffffffffffffffffffffffffffffffffff169050919050565b60006106af8261083c565b90508073ffffffffffffffffffffffffffffffffffffffff168373ffffffffffffffffffffffffffffffffffffffff161415610720576040517f08c379a000000000000000000000000000000000000000000000000000000000815260040161071790612b6f565b60405180910390fd5b8073ffffffffffffffffffffffffffffffffffffffff1661073f611339565b73ffffffffffffffffffffffffffffffffffffffff16148061076e575061076d81610768611339565b610f69565b5b6107ad576040517f08c379a00000000000000000000000000000000000000000000000000000000081526004016107a490612a2f565b60405180910390fd5b6107b78383611341565b505050565b6107cd6107c7611339565b826113fa565b61080c576040517f08c379a000000000000000000000000000000000000000000000000000000000815260040161080390612b8f565b60405180910390fd5b6108178383836114d8565b505050565b61083783838360405180602001604052806000815250610bc4565b505050565b6000806002600084815260200190815260200160002060009054906101000a900473ffffffffffffffffffffffffffffffffffffffff169050600073ffffffffffffffffffffffffffffffffffffffff168173ffffffffffffffffffffffffffffffffffffffff1614156108e5576040517f08c379a00000000000000000000000000000000000000000000000000000000081526004016108dc90612a6f565b60405180910390fd5b80915050919050565b60008073ffffffffffffffffffffffffffffffffffffffff168273ffffffffffffffffffffffffffffffffffffffff16141561095f576040517f08c379a000000000000000000000000000000000000000000000000000000000815260040161095690612a4f565b60405180910390fd5b600360008373ffffffffffffffffffffffffffffffffffffffff1673ffffffffffffffffffffffffffffffffffffffff168152602001908152602001600020549050919050565b6060600180546109b590612e0f565b80601f01602080910402602001604051908101604052809291908181526020018280546109e190612e0f565b8015610a2e5780601f10610a0357610100808354040283529160200191610a2e565b820191906000526020600020905b815481529060010190602001808311610a1157829003601f168201915b5050505050905090565b610a4a610a43611339565b8383611734565b5050565b80610a58816112cd565b610a97576040517f08c379a0000000000000000000000000000000000000000000000000000000008152600401610a8e90612b0f565b60405180910390fd5b610aa08161083c565b73ffffffffffffffffffffffffffffffffffffffff163373ffffffffffffffffffffffffffffffffffffffff161415610b0e576040517f08c379a0000000000000000000000000000000000000000000000000000000008152600401610b05906129af565b60405180910390fd5b60006008600084815260200190815260200160002060405180606001604052908160008201548152602001600182015481526020016002820160009054906101000a900460ff16151515158152505090508060400151158160400190151590811515815250508060086000858152602001908152602001600020600082015181600001556020820151816001015560408201518160020160006101000a81548160ff021916908315150217905550905050505050565b610bd5610bcf611339565b836113fa565b610c14576040517f08c379a0000000000000000000000000000000000000000000000000000000008152600401610c0b90612b8f565b60405180910390fd5b610c20848484846118a1565b50505050565b6060610c31826112cd565b610c70576040517f08c379a0000000000000000000000000000000000000000000000000000000008152600401610c6790612acf565b60405180910390fd5b6000600660008481526020019081526020016000208054610c9090612e0f565b80601f0160208091040260200160405190810160405280929190818152602001828054610cbc90612e0f565b8015610d095780601f10610cde57610100808354040283529160200191610d09565b820191906000526020600020905b815481529060010190602001808311610cec57829003601f168201915b505050505090506000610d1a6118fd565b9050600081511415610d30578192505050610d73565b600082511115610d65578082604051602001610d4d9291906128a7565b60405160208183030381529060405292505050610d73565b610d6e84611914565b925050505b919050565b80610d82816112cd565b610dc1576040517f08c379a0000000000000000000000000000000000000000000000000000000008152600401610db890612b0f565b60405180910390fd5b610dca8161083c565b73ffffffffffffffffffffffffffffffffffffffff163373ffffffffffffffffffffffffffffffffffffffff161415610e38576040517f08c379a0000000000000000000000000000000000000000000000000000000008152600401610e2f906129af565b60405180910390fd5b60006008600084815260200190815260200160002060405180606001604052908160008201548152602001600182015481526020016002820160009054906101000a900460ff16151515158152505090508060200151341015610e9a57600080fd5b8060400151610ea857600080fd5b6000610eb38461083c565b90508073ffffffffffffffffffffffffffffffffffffffff166108fc349081150290604051600060405180830381858888f19350505050158015610efb573d6000803e3d6000fd5b50610f078133866114d8565b60008260400190151590811515815250508160086000868152602001908152602001600020600082015181600001556020820151816001015560408201518160020160006101000a81548160ff02191690831515021790555090505050505050565b6000600560008473ffffffffffffffffffffffffffffffffffffffff1673ffffffffffffffffffffffffffffffffffffffff16815260200190815260200160002060008373ffffffffffffffffffffffffffffffffffffffff1673ffffffffffffffffffffffffffffffffffffffff16815260200190815260200160002060009054906101000a900460ff16905092915050565b60007f01ffc9a7000000000000000000000000000000000000000000000000000000007bffffffffffffffffffffffffffffffffffffffffffffffffffffffff1916827bffffffffffffffffffffffffffffffffffffffffffffffffffffffff1916149050919050565b6001816000016000828254019250508190555050565b600081600001549050919050565b600073ffffffffffffffffffffffffffffffffffffffff168273ffffffffffffffffffffffffffffffffffffffff1614156110fb576040517f08c379a00000000000000000000000000000000000000000000000000000000081526004016110f290612aaf565b60405180910390fd5b611104816112cd565b15611144576040517f08c379a000000000000000000000000000000000000000000000000000000000815260040161113b9061298f565b60405180910390fd5b611150600083836119bb565b6001600360008473ffffffffffffffffffffffffffffffffffffffff1673ffffffffffffffffffffffffffffffffffffffff16815260200190815260200160002060008282546111a09190612c9e565b92505081905550816002600083815260200190815260200160002060006101000a81548173ffffffffffffffffffffffffffffffffffffffff021916908373ffffffffffffffffffffffffffffffffffffffff160217905550808273ffffffffffffffffffffffffffffffffffffffff16600073ffffffffffffffffffffffffffffffffffffffff167fddf252ad1be2c89b69c2b068fc378daa952ba7f163c4a11628f55a4df523b3ef60405160405180910390a45050565b611262826112cd565b6112a1576040517f08c379a000000000000000000000000000000000000000000000000000000000815260040161129890612a8f565b60405180910390fd5b806006600084815260200190815260200160002090805190602001906112c8929190611d17565b505050565b60008073ffffffffffffffffffffffffffffffffffffffff166002600084815260200190815260200160002060009054906101000a900473ffffffffffffffffffffffffffffffffffffffff1673ffffffffffffffffffffffffffffffffffffffff1614159050919050565b600033905090565b816004600083815260200190815260200160002060006101000a81548173ffffffffffffffffffffffffffffffffffffffff021916908373ffffffffffffffffffffffffffffffffffffffff160217905550808273ffffffffffffffffffffffffffffffffffffffff166113b48361083c565b73ffffffffffffffffffffffffffffffffffffffff167f8c5be1e5ebec7d5bd14f71427d1e84f3dd0314c0f7b2291e5b200ac8c7c3b92560405160405180910390a45050565b6000611405826112cd565b611444576040517f08c379a000000000000000000000000000000000000000000000000000000000815260040161143b90612a0f565b60405180910390fd5b600061144f8361083c565b90508073ffffffffffffffffffffffffffffffffffffffff168473ffffffffffffffffffffffffffffffffffffffff1614806114be57508373ffffffffffffffffffffffffffffffffffffffff166114a68461061f565b73ffffffffffffffffffffffffffffffffffffffff16145b806114cf57506114ce8185610f69565b5b91505092915050565b8273ffffffffffffffffffffffffffffffffffffffff166114f88261083c565b73ffffffffffffffffffffffffffffffffffffffff161461154e576040517f08c379a000000000000000000000000000000000000000000000000000000000815260040161154590612b2f565b60405180910390fd5b600073ffffffffffffffffffffffffffffffffffffffff168273ffffffffffffffffffffffffffffffffffffffff1614156115be576040517f08c379a00000000000000000000000000000000000000000000000000000000081526004016115b5906129cf565b60405180910390fd5b6115c98383836119bb565b6115d4600082611341565b6001600360008573ffffffffffffffffffffffffffffffffffffffff1673ffffffffffffffffffffffffffffffffffffffff16815260200190815260200160002060008282546116249190612d25565b925050819055506001600360008473ffffffffffffffffffffffffffffffffffffffff1673ffffffffffffffffffffffffffffffffffffffff168152602001908152602001600020600082825461167b9190612c9e565b92505081905550816002600083815260200190815260200160002060006101000a81548173ffffffffffffffffffffffffffffffffffffffff021916908373ffffffffffffffffffffffffffffffffffffffff160217905550808273ffffffffffffffffffffffffffffffffffffffff168473ffffffffffffffffffffffffffffffffffffffff167fddf252ad1be2c89b69c2b068fc378daa952ba7f163c4a11628f55a4df523b3ef60405160405180910390a4505050565b8173ffffffffffffffffffffffffffffffffffffffff168373ffffffffffffffffffffffffffffffffffffffff1614156117a3576040517f08c379a000000000000000000000000000000000000000000000000000000000815260040161179a906129ef565b60405180910390fd5b80600560008573ffffffffffffffffffffffffffffffffffffffff1673ffffffffffffffffffffffffffffffffffffffff16815260200190815260200160002060008473ffffffffffffffffffffffffffffffffffffffff1673ffffffffffffffffffffffffffffffffffffffff16815260200190815260200160002060006101000a81548160ff0219169083151502179055508173ffffffffffffffffffffffffffffffffffffffff168373ffffffffffffffffffffffffffffffffffffffff167f17307eab39ab6107e8899845ad3d59bd9653f200f220920489ca2b5937696c31836040516118949190612932565b60405180910390a3505050565b6118ac8484846114d8565b6118b8848484846119c0565b6118f7576040517f08c379a00000000000000000000000000000000000000000000000000000000081526004016118ee9061296f565b60405180910390fd5b50505050565b606060405180602001604052806000815250905090565b606061191f826112cd565b61195e576040517f08c379a000000000000000000000000000000000000000000000000000000000815260040161195590612b4f565b60405180910390fd5b60006119686118fd565b9050600081511161198857604051806020016040528060008152506119b3565b8061199284611b57565b6040516020016119a39291906128a7565b6040516020818303038152906040525b915050919050565b505050565b60006119e18473ffffffffffffffffffffffffffffffffffffffff16611d04565b15611b4a578373ffffffffffffffffffffffffffffffffffffffff1663150b7a02611a0a611339565b8786866040518563ffffffff1660e01b8152600401611a2c94939291906128e6565b602060405180830381600087803b158015611a4657600080fd5b505af1925050508015611a7757506040513d601f19601f82011682018060405250810190611a7491906120c3565b60015b611afa573d8060008114611aa7576040519150601f19603f3d011682016040523d82523d6000602084013e611aac565b606091505b50600081511415611af2576040517f08c379a0000000000000000000000000000000000000000000000000000000008152600401611ae99061296f565b60405180910390fd5b805181602001fd5b63150b7a0260e01b7bffffffffffffffffffffffffffffffffffffffffffffffffffffffff1916817bffffffffffffffffffffffffffffffffffffffffffffffffffffffff191614915050611b4f565b600190505b949350505050565b60606000821415611b9f576040518060400160405280600181526020017f30000000000000000000000000000000000000000000000000000000000000008152509050611cff565b600082905060005b60008214611bd1578080611bba90612e41565b915050600a82611bca9190612cf4565b9150611ba7565b60008167ffffffffffffffff811115611c13577f4e487b7100000000000000000000000000000000000000000000000000000000600052604160045260246000fd5b6040519080825280601f01601f191660200182016040528015611c455781602001600182028036833780820191505090505b5090505b60008514611cf857600182611c5e9190612d25565b9150600a85611c6d9190612e8a565b6030611c799190612c9e565b60f81b818381518110611cb5577f4e487b7100000000000000000000000000000000000000000000000000000000600052603260045260246000fd5b60200101907effffffffffffffffffffffffffffffffffffffffffffffffffffffffffffff1916908160001a905350600a85611cf19190612cf4565b9450611c49565b8093505050505b919050565b600080823b905060008111915050919050565b828054611d2390612e0f565b90600052602060002090601f016020900481019282611d455760008555611d8c565b82601f10611d5e57805160ff1916838001178555611d8c565b82800160010185558215611d8c579182015b82811115611d8b578251825591602001919060010190611d70565b5b509050611d999190611d9d565b5090565b5b80821115611db6576000816000905550600101611d9e565b5090565b6000611dcd611dc884612bfb565b612bca565b905082815260208101848484011115611de557600080fd5b611df0848285612dcd565b509392505050565b6000611e0b611e0684612c2b565b612bca565b905082815260208101848484011115611e2357600080fd5b611e2e848285612dcd565b509392505050565b600081359050611e4581612f88565b92915050565b600081359050611e5a81612f9f565b92915050565b600081359050611e6f81612fb6565b92915050565b600081519050611e8481612fb6565b92915050565b600082601f830112611e9b57600080fd5b8135611eab848260208601611dba565b91505092915050565b600082601f830112611ec557600080fd5b8135611ed5848260208601611df8565b91505092915050565b600081359050611eed81612fcd565b92915050565b600060208284031215611f0557600080fd5b6000611f1384828501611e36565b91505092915050565b60008060408385031215611f2f57600080fd5b6000611f3d85828601611e36565b9250506020611f4e85828601611e36565b9150509250929050565b600080600060608486031215611f6d57600080fd5b6000611f7b86828701611e36565b9350506020611f8c86828701611e36565b9250506040611f9d86828701611ede565b9150509250925092565b60008060008060808587031215611fbd57600080fd5b6000611fcb87828801611e36565b9450506020611fdc87828801611e36565b9350506040611fed87828801611ede565b925050606085013567ffffffffffffffff81111561200a57600080fd5b61201687828801611e8a565b91505092959194509250565b6000806040838503121561203557600080fd5b600061204385828601611e36565b925050602061205485828601611e4b565b9150509250929050565b6000806040838503121561207157600080fd5b600061207f85828601611e36565b925050602061209085828601611ede565b9150509250929050565b6000602082840312156120ac57600080fd5b60006120ba84828501611e60565b91505092915050565b6000602082840312156120d557600080fd5b60006120e384828501611e75565b91505092915050565b600080604083850312156120ff57600080fd5b600083013567ffffffffffffffff81111561211957600080fd5b61212585828601611eb4565b925050602061213685828601611ede565b9150509250929050565b60006020828403121561215257600080fd5b600061216084828501611ede565b91505092915050565b61217281612d59565b82525050565b61218181612d6b565b82525050565b600061219282612c5b565b61219c8185612c71565b93506121ac818560208601612ddc565b6121b581612f77565b840191505092915050565b60006121cb82612c66565b6121d58185612c82565b93506121e5818560208601612ddc565b6121ee81612f77565b840191505092915050565b600061220482612c66565b61220e8185612c93565b935061221e818560208601612ddc565b80840191505092915050565b6000612237603283612c82565b91507f4552433732313a207472616e7366657220746f206e6f6e20455243373231526560008301527f63656976657220696d706c656d656e74657200000000000000000000000000006020830152604082019050919050565b600061229d601c83612c82565b91507f4552433732313a20746f6b656e20616c7265616479206d696e746564000000006000830152602082019050919050565b60006122dd601883612c82565b91507f796f7520616c7265616479206f776e2074686973206e667400000000000000006000830152602082019050919050565b600061231d602483612c82565b91507f4552433732313a207472616e7366657220746f20746865207a65726f2061646460008301527f72657373000000000000000000000000000000000000000000000000000000006020830152604082019050919050565b6000612383601983612c82565b91507f4552433732313a20617070726f766520746f2063616c6c6572000000000000006000830152602082019050919050565b60006123c3602c83612c82565b91507f4552433732313a206f70657261746f7220717565727920666f72206e6f6e657860008301527f697374656e7420746f6b656e00000000000000000000000000000000000000006020830152604082019050919050565b6000612429603883612c82565b91507f4552433732313a20617070726f76652063616c6c6572206973206e6f74206f7760008301527f6e6572206e6f7220617070726f76656420666f7220616c6c00000000000000006020830152604082019050919050565b600061248f602a83612c82565b91507f4552433732313a2062616c616e636520717565727920666f7220746865207a6560008301527f726f2061646472657373000000000000000000000000000000000000000000006020830152604082019050919050565b60006124f5602983612c82565b91507f4552433732313a206f776e657220717565727920666f72206e6f6e657869737460008301527f656e7420746f6b656e00000000000000000000000000000000000000000000006020830152604082019050919050565b600061255b602e83612c82565b91507f45524337323155524953746f726167653a2055524920736574206f66206e6f6e60008301527f6578697374656e7420746f6b656e0000000000000000000000000000000000006020830152604082019050919050565b60006125c1602083612c82565b91507f4552433732313a206d696e7420746f20746865207a65726f20616464726573736000830152602082019050919050565b6000612601603183612c82565b91507f45524337323155524953746f726167653a2055524920717565727920666f722060008301527f6e6f6e6578697374656e7420746f6b656e0000000000000000000000000000006020830152604082019050919050565b6000612667602c83612c82565b91507f4552433732313a20617070726f76656420717565727920666f72206e6f6e657860008301527f697374656e7420746f6b656e00000000000000000000000000000000000000006020830152604082019050919050565b60006126cd601f83612c82565b91507f4e66742077697468207468697320696420646f6573276e7420657869737473006000830152602082019050919050565b600061270d602983612c82565b91507f4552433732313a207472616e73666572206f6620746f6b656e2074686174206960008301527f73206e6f74206f776e00000000000000000000000000000000000000000000006020830152604082019050919050565b6000612773602f83612c82565b91507f4552433732314d657461646174613a2055524920717565727920666f72206e6f60008301527f6e6578697374656e7420746f6b656e00000000000000000000000000000000006020830152604082019050919050565b60006127d9602183612c82565b91507f4552433732313a20617070726f76616c20746f2063757272656e74206f776e6560008301527f72000000000000000000000000000000000000000000000000000000000000006020830152604082019050919050565b600061283f603183612c82565b91507f4552433732313a207472616e736665722063616c6c6572206973206e6f74206f60008301527f776e6572206e6f7220617070726f7665640000000000000000000000000000006020830152604082019050919050565b6128a181612dc3565b82525050565b60006128b382856121f9565b91506128bf82846121f9565b91508190509392505050565b60006020820190506128e06000830184612169565b92915050565b60006080820190506128fb6000830187612169565b6129086020830186612169565b6129156040830185612898565b81810360608301526129278184612187565b905095945050505050565b60006020820190506129476000830184612178565b92915050565b6000602082019050818103600083015261296781846121c0565b905092915050565b600060208201905081810360008301526129888161222a565b9050919050565b600060208201905081810360008301526129a881612290565b9050919050565b600060208201905081810360008301526129c8816122d0565b9050919050565b600060208201905081810360008301526129e881612310565b9050919050565b60006020820190508181036000830152612a0881612376565b9050919050565b60006020820190508181036000830152612a28816123b6565b9050919050565b60006020820190508181036000830152612a488161241c565b9050919050565b60006020820190508181036000830152612a6881612482565b9050919050565b60006020820190508181036000830152612a88816124e8565b9050919050565b60006020820190508181036000830152612aa88161254e565b9050919050565b60006020820190508181036000830152612ac8816125b4565b9050919050565b60006020820190508181036000830152612ae8816125f4565b9050919050565b60006020820190508181036000830152612b088161265a565b9050919050565b60006020820190508181036000830152612b28816126c0565b9050919050565b60006020820190508181036000830152612b4881612700565b9050919050565b60006020820190508181036000830152612b6881612766565b9050919050565b60006020820190508181036000830152612b88816127cc565b9050919050565b60006020820190508181036000830152612ba881612832565b9050919050565b6000602082019050612bc46000830184612898565b92915050565b6000604051905081810181811067ffffffffffffffff82111715612bf157612bf0612f48565b5b8060405250919050565b600067ffffffffffffffff821115612c1657612c15612f48565b5b601f19601f8301169050602081019050919050565b600067ffffffffffffffff821115612c4657612c45612f48565b5b601f19601f8301169050602081019050919050565b600081519050919050565b600081519050919050565b600082825260208201905092915050565b600082825260208201905092915050565b600081905092915050565b6000612ca982612dc3565b9150612cb483612dc3565b9250827fffffffffffffffffffffffffffffffffffffffffffffffffffffffffffffffff03821115612ce957612ce8612ebb565b5b828201905092915050565b6000612cff82612dc3565b9150612d0a83612dc3565b925082612d1a57612d19612eea565b5b828204905092915050565b6000612d3082612dc3565b9150612d3b83612dc3565b925082821015612d4e57612d4d612ebb565b5b828203905092915050565b6000612d6482612da3565b9050919050565b60008115159050919050565b60007fffffffff0000000000000000000000000000000000000000000000000000000082169050919050565b600073ffffffffffffffffffffffffffffffffffffffff82169050919050565b6000819050919050565b82818337600083830152505050565b60005b83811015612dfa578082015181840152602081019050612ddf565b83811115612e09576000848401525b50505050565b60006002820490506001821680612e2757607f821691505b60208210811415612e3b57612e3a612f19565b5b50919050565b6000612e4c82612dc3565b91507fffffffffffffffffffffffffffffffffffffffffffffffffffffffffffffffff821415612e7f57612e7e612ebb565b5b600182019050919050565b6000612e9582612dc3565b9150612ea083612dc3565b925082612eb057612eaf612eea565b5b828206905092915050565b7f4e487b7100000000000000000000000000000000000000000000000000000000600052601160045260246000fd5b7f4e487b7100000000000000000000000000000000000000000000000000000000600052601260045260246000fd5b7f4e487b7100000000000000000000000000000000000000000000000000000000600052602260045260246000fd5b7f4e487b7100000000000000000000000000000000000000000000000000000000600052604160045260246000fd5b6000601f19601f8301169050919050565b612f9181612d59565b8114612f9c57600080fd5b50565b612fa881612d6b565b8114612fb357600080fd5b50565b612fbf81612d77565b8114612fca57600080fd5b50565b612fd681612dc3565b8114612fe157600080fd5b5056fea26469706673582212207f06b1513def9aeee6e52cac1cf351774eb642c40245448783b822e78f2ae4eb64736f6c63430008000033",
  "linkReferences": {},
  "deployedLinkReferences": {}
}